{
  "abi": [
    {
      "type": "constructor",
      "inputs": [
        {
          "name": "initialOwner",
          "type": "address",
          "internalType": "address"
        }
      ],
      "stateMutability": "nonpayable"
    },
    {
      "type": "function",
      "name": "approve",
      "inputs": [
        {
          "name": "to",
          "type": "address",
          "internalType": "address"
        },
        {
          "name": "tokenId",
          "type": "uint256",
          "internalType": "uint256"
        }
      ],
      "outputs": [],
      "stateMutability": "nonpayable"
    },
    {
      "type": "function",
      "name": "authorizedMinters",
      "inputs": [
        {
          "name": "",
          "type": "address",
          "internalType": "address"
        }
      ],
      "outputs": [
        {
          "name": "",
          "type": "bool",
          "internalType": "bool"
        }
      ],
      "stateMutability": "view"
    },
    {
      "type": "function",
      "name": "authorizedVerifiers",
      "inputs": [
        {
          "name": "",
          "type": "address",
          "internalType": "address"
        }
      ],
      "outputs": [
        {
          "name": "",
          "type": "bool",
          "internalType": "bool"
        }
      ],
      "stateMutability": "view"
    },
    {
      "type": "function",
      "name": "balanceOf",
      "inputs": [
        {
          "name": "owner",
          "type": "address",
          "internalType": "address"
        }
      ],
      "outputs": [
        {
          "name": "",
          "type": "uint256",
          "internalType": "uint256"
        }
      ],
      "stateMutability": "view"
    },
    {
      "type": "function",
      "name": "batchMintTickets",
      "inputs": [
        {
          "name": "recipients",
          "type": "address[]",
          "internalType": "address[]"
        },
        {
          "name": "eventId",
          "type": "uint256",
          "internalType": "uint256"
        },
        {
          "name": "seatNumbers",
          "type": "uint256[]",
          "internalType": "uint256[]"
        },
        {
          "name": "originalPrice",
          "type": "uint256",
          "internalType": "uint256"
        },
        {
          "name": "category",
          "type": "uint256",
          "internalType": "uint256"
        },
        {
          "name": "validFrom",
          "type": "uint256",
          "internalType": "uint256"
        },
        {
          "name": "validUntil",
          "type": "uint256",
          "internalType": "uint256"
        },
        {
          "name": "isTransferable",
          "type": "bool",
          "internalType": "bool"
        },
        {
          "name": "seatSection",
          "type": "string",
          "internalType": "string"
        },
        {
          "name": "tokenURIs",
          "type": "string[]",
          "internalType": "string[]"
        }
      ],
      "outputs": [
        {
          "name": "",
          "type": "uint256[]",
          "internalType": "uint256[]"
        }
      ],
      "stateMutability": "nonpayable"
    },
    {
      "type": "function",
      "name": "cancelTicket",
      "inputs": [
        {
          "name": "tokenId",
          "type": "uint256",
          "internalType": "uint256"
        },
        {
          "name": "reason",
          "type": "string",
          "internalType": "string"
        }
      ],
      "outputs": [],
      "stateMutability": "nonpayable"
    },
    {
      "type": "function",
      "name": "emergencyWithdraw",
      "inputs": [
        {
          "name": "token",
          "type": "address",
          "internalType": "address"
        },
        {
          "name": "to",
          "type": "address",
          "internalType": "address"
        },
        {
          "name": "amount",
          "type": "uint256",
          "internalType": "uint256"
        }
      ],
      "outputs": [],
      "stateMutability": "nonpayable"
    },
    {
      "type": "function",
      "name": "eventPurchaseLimit",
      "inputs": [
        {
          "name": "",
          "type": "uint256",
          "internalType": "uint256"
        }
      ],
      "outputs": [
        {
          "name": "",
          "type": "uint256",
          "internalType": "uint256"
        }
      ],
      "stateMutability": "view"
    },
    {
      "type": "function",
      "name": "eventTickets",
      "inputs": [
        {
          "name": "",
          "type": "uint256",
          "internalType": "uint256"
        },
        {
          "name": "",
          "type": "uint256",
          "internalType": "uint256"
        }
      ],
      "outputs": [
        {
          "name": "",
          "type": "uint256",
          "internalType": "uint256"
        }
      ],
      "stateMutability": "view"
    },
    {
      "type": "function",
      "name": "expireTickets",
      "inputs": [
        {
          "name": "tokenIds",
          "type": "uint256[]",
          "internalType": "uint256[]"
        }
      ],
      "outputs": [],
      "stateMutability": "nonpayable"
    },
    {
      "type": "function",
      "name": "getApproved",
      "inputs": [
        {
          "name": "tokenId",
          "type": "uint256",
          "internalType": "uint256"
        }
      ],
      "outputs": [
        {
          "name": "",
          "type": "address",
          "internalType": "address"
        }
      ],
      "stateMutability": "view"
    },
    {
      "type": "function",
      "name": "getEventTickets",
      "inputs": [
        {
          "name": "eventId",
          "type": "uint256",
          "internalType": "uint256"
        }
      ],
      "outputs": [
        {
          "name": "",
          "type": "uint256[]",
          "internalType": "uint256[]"
        }
      ],
      "stateMutability": "view"
    },
    {
      "type": "function",
      "name": "getTicketInfo",
      "inputs": [
        {
          "name": "tokenId",
          "type": "uint256",
          "internalType": "uint256"
        }
      ],
      "outputs": [
        {
          "name": "",
          "type": "tuple",
          "internalType": "struct TicketManager.TicketMetadata",
          "components": [
            {
              "name": "eventId",
              "type": "uint256",
              "internalType": "uint256"
            },
            {
              "name": "seatNumber",
              "type": "uint256",
              "internalType": "uint256"
            },
            {
              "name": "originalPrice",
              "type": "uint256",
              "internalType": "uint256"
            },
            {
              "name": "category",
              "type": "uint256",
              "internalType": "uint256"
            },
            {
              "name": "validFrom",
              "type": "uint256",
              "internalType": "uint256"
            },
            {
              "name": "validUntil",
              "type": "uint256",
              "internalType": "uint256"
            },
            {
              "name": "status",
              "type": "uint8",
              "internalType": "enum TicketManager.TicketStatus"
            },
            {
              "name": "originalBuyer",
              "type": "address",
              "internalType": "address"
            },
            {
              "name": "purchaseTime",
              "type": "uint256",
              "internalType": "uint256"
            },
            {
              "name": "isTransferable",
              "type": "bool",
              "internalType": "bool"
            },
            {
              "name": "seatSection",
              "type": "string",
              "internalType": "string"
            },
            {
              "name": "verificationHash",
              "type": "bytes32",
              "internalType": "bytes32"
            }
          ]
        }
      ],
      "stateMutability": "view"
    },
    {
      "type": "function",
      "name": "getUserEventTickets",
      "inputs": [
        {
          "name": "user",
          "type": "address",
          "internalType": "address"
        },
        {
          "name": "eventId",
          "type": "uint256",
          "internalType": "uint256"
        }
      ],
      "outputs": [
        {
          "name": "",
          "type": "uint256[]",
          "internalType": "uint256[]"
        }
      ],
      "stateMutability": "view"
    },
    {
      "type": "function",
      "name": "getUserTickets",
      "inputs": [
        {
          "name": "user",
          "type": "address",
          "internalType": "address"
        }
      ],
      "outputs": [
        {
          "name": "",
          "type": "uint256[]",
          "internalType": "uint256[]"
        }
      ],
      "stateMutability": "view"
    },
    {
      "type": "function",
      "name": "isApprovedForAll",
      "inputs": [
        {
          "name": "owner",
          "type": "address",
          "internalType": "address"
        },
        {
          "name": "operator",
          "type": "address",
          "internalType": "address"
        }
      ],
      "outputs": [
        {
          "name": "",
          "type": "bool",
          "internalType": "bool"
        }
      ],
      "stateMutability": "view"
    },
    {
      "type": "function",
      "name": "isTicketValid",
      "inputs": [
        {
          "name": "tokenId",
          "type": "uint256",
          "internalType": "uint256"
        }
      ],
      "outputs": [
        {
          "name": "",
          "type": "bool",
          "internalType": "bool"
        }
      ],
      "stateMutability": "view"
    },
    {
      "type": "function",
      "name": "mintTicket",
      "inputs": [
        {
          "name": "to",
          "type": "address",
          "internalType": "address"
        },
        {
          "name": "eventId",
          "type": "uint256",
          "internalType": "uint256"
        },
        {
          "name": "seatNumber",
          "type": "uint256",
          "internalType": "uint256"
        },
        {
          "name": "originalPrice",
          "type": "uint256",
          "internalType": "uint256"
        },
        {
          "name": "category",
          "type": "uint256",
          "internalType": "uint256"
        },
        {
          "name": "validFrom",
          "type": "uint256",
          "internalType": "uint256"
        },
        {
          "name": "validUntil",
          "type": "uint256",
          "internalType": "uint256"
        },
        {
          "name": "isTransferable",
          "type": "bool",
          "internalType": "bool"
        },
        {
          "name": "seatSection",
          "type": "string",
          "internalType": "string"
        },
        {
          "name": "uri",
          "type": "string",
          "internalType": "string"
        }
      ],
      "outputs": [
        {
          "name": "",
          "type": "uint256",
          "internalType": "uint256"
        }
      ],
      "stateMutability": "nonpayable"
    },
    {
      "type": "function",
      "name": "name",
      "inputs": [],
      "outputs": [
        {
          "name": "",
          "type": "string",
          "internalType": "string"
        }
      ],
      "stateMutability": "view"
    },
    {
      "type": "function",
      "name": "owner",
      "inputs": [],
      "outputs": [
        {
          "name": "",
          "type": "address",
          "internalType": "address"
        }
      ],
      "stateMutability": "view"
    },
    {
      "type": "function",
      "name": "ownerOf",
      "inputs": [
        {
          "name": "tokenId",
          "type": "uint256",
          "internalType": "uint256"
        }
      ],
      "outputs": [
        {
          "name": "",
          "type": "address",
          "internalType": "address"
        }
      ],
      "stateMutability": "view"
    },
    {
      "type": "function",
      "name": "pause",
      "inputs": [],
      "outputs": [],
      "stateMutability": "nonpayable"
    },
    {
      "type": "function",
      "name": "paused",
      "inputs": [],
      "outputs": [
        {
          "name": "",
          "type": "bool",
          "internalType": "bool"
        }
      ],
      "stateMutability": "view"
    },
    {
      "type": "function",
      "name": "renounceOwnership",
      "inputs": [],
      "outputs": [],
      "stateMutability": "nonpayable"
    },
    {
      "type": "function",
      "name": "safeTransferFrom",
      "inputs": [
        {
          "name": "from",
          "type": "address",
          "internalType": "address"
        },
        {
          "name": "to",
          "type": "address",
          "internalType": "address"
        },
        {
          "name": "tokenId",
          "type": "uint256",
          "internalType": "uint256"
        }
      ],
      "outputs": [],
      "stateMutability": "nonpayable"
    },
    {
      "type": "function",
      "name": "safeTransferFrom",
      "inputs": [
        {
          "name": "from",
          "type": "address",
          "internalType": "address"
        },
        {
          "name": "to",
          "type": "address",
          "internalType": "address"
        },
        {
          "name": "tokenId",
          "type": "uint256",
          "internalType": "uint256"
        },
        {
          "name": "data",
          "type": "bytes",
          "internalType": "bytes"
        }
      ],
      "outputs": [],
      "stateMutability": "nonpayable"
    },
    {
      "type": "function",
      "name": "seatToTicket",
      "inputs": [
        {
          "name": "",
          "type": "uint256",
          "internalType": "uint256"
        },
        {
          "name": "",
          "type": "uint256",
          "internalType": "uint256"
        }
      ],
      "outputs": [
        {
          "name": "",
          "type": "uint256",
          "internalType": "uint256"
        }
      ],
      "stateMutability": "view"
    },
    {
      "type": "function",
      "name": "setApprovalForAll",
      "inputs": [
        {
          "name": "operator",
          "type": "address",
          "internalType": "address"
        },
        {
          "name": "approved",
          "type": "bool",
          "internalType": "bool"
        }
      ],
      "outputs": [],
      "stateMutability": "nonpayable"
    },
    {
      "type": "function",
      "name": "setEventPurchaseLimit",
      "inputs": [
        {
          "name": "eventId",
          "type": "uint256",
          "internalType": "uint256"
        },
        {
          "name": "limit",
          "type": "uint256",
          "internalType": "uint256"
        }
      ],
      "outputs": [],
      "stateMutability": "nonpayable"
    },
    {
      "type": "function",
      "name": "setMinterAuthorization",
      "inputs": [
        {
          "name": "minter",
          "type": "address",
          "internalType": "address"
        },
        {
          "name": "authorized",
          "type": "bool",
          "internalType": "bool"
        }
      ],
      "outputs": [],
      "stateMutability": "nonpayable"
    },
    {
      "type": "function",
      "name": "setTicketTransferable",
      "inputs": [
        {
          "name": "tokenId",
          "type": "uint256",
          "internalType": "uint256"
        },
        {
          "name": "transferable",
          "type": "bool",
          "internalType": "bool"
        }
      ],
      "outputs": [],
      "stateMutability": "nonpayable"
    },
    {
      "type": "function",
      "name": "setVerifierAuthorization",
      "inputs": [
        {
          "name": "verifier",
          "type": "address",
          "internalType": "address"
        },
        {
          "name": "authorized",
          "type": "bool",
          "internalType": "bool"
        }
      ],
      "outputs": [],
      "stateMutability": "nonpayable"
    },
    {
      "type": "function",
      "name": "supportsInterface",
      "inputs": [
        {
          "name": "interfaceId",
          "type": "bytes4",
          "internalType": "bytes4"
        }
      ],
      "outputs": [
        {
          "name": "",
          "type": "bool",
          "internalType": "bool"
        }
      ],
      "stateMutability": "view"
    },
    {
      "type": "function",
      "name": "symbol",
      "inputs": [],
      "outputs": [
        {
          "name": "",
          "type": "string",
          "internalType": "string"
        }
      ],
      "stateMutability": "view"
    },
    {
      "type": "function",
      "name": "tickets",
      "inputs": [
        {
          "name": "",
          "type": "uint256",
          "internalType": "uint256"
        }
      ],
      "outputs": [
        {
          "name": "eventId",
          "type": "uint256",
          "internalType": "uint256"
        },
        {
          "name": "seatNumber",
          "type": "uint256",
          "internalType": "uint256"
        },
        {
          "name": "originalPrice",
          "type": "uint256",
          "internalType": "uint256"
        },
        {
          "name": "category",
          "type": "uint256",
          "internalType": "uint256"
        },
        {
          "name": "validFrom",
          "type": "uint256",
          "internalType": "uint256"
        },
        {
          "name": "validUntil",
          "type": "uint256",
          "internalType": "uint256"
        },
        {
          "name": "status",
          "type": "uint8",
          "internalType": "enum TicketManager.TicketStatus"
        },
        {
          "name": "originalBuyer",
          "type": "address",
          "internalType": "address"
        },
        {
          "name": "purchaseTime",
          "type": "uint256",
          "internalType": "uint256"
        },
        {
          "name": "isTransferable",
          "type": "bool",
          "internalType": "bool"
        },
        {
          "name": "seatSection",
          "type": "string",
          "internalType": "string"
        },
        {
          "name": "verificationHash",
          "type": "bytes32",
          "internalType": "bytes32"
        }
      ],
      "stateMutability": "view"
    },
    {
      "type": "function",
      "name": "tokenByIndex",
      "inputs": [
        {
          "name": "index",
          "type": "uint256",
          "internalType": "uint256"
        }
      ],
      "outputs": [
        {
          "name": "",
          "type": "uint256",
          "internalType": "uint256"
        }
      ],
      "stateMutability": "view"
    },
    {
      "type": "function",
      "name": "tokenOfOwnerByIndex",
      "inputs": [
        {
          "name": "owner",
          "type": "address",
          "internalType": "address"
        },
        {
          "name": "index",
          "type": "uint256",
          "internalType": "uint256"
        }
      ],
      "outputs": [
        {
          "name": "",
          "type": "uint256",
          "internalType": "uint256"
        }
      ],
      "stateMutability": "view"
    },
    {
      "type": "function",
      "name": "tokenURI",
      "inputs": [
        {
          "name": "tokenId",
          "type": "uint256",
          "internalType": "uint256"
        }
      ],
      "outputs": [
        {
          "name": "",
          "type": "string",
          "internalType": "string"
        }
      ],
      "stateMutability": "view"
    },
    {
      "type": "function",
      "name": "totalSupply",
      "inputs": [],
      "outputs": [
        {
          "name": "",
          "type": "uint256",
          "internalType": "uint256"
        }
      ],
      "stateMutability": "view"
    },
    {
      "type": "function",
      "name": "transferFrom",
      "inputs": [
        {
          "name": "from",
          "type": "address",
          "internalType": "address"
        },
        {
          "name": "to",
          "type": "address",
          "internalType": "address"
        },
        {
          "name": "tokenId",
          "type": "uint256",
          "internalType": "uint256"
        }
      ],
      "outputs": [],
      "stateMutability": "nonpayable"
    },
    {
      "type": "function",
      "name": "transferOwnership",
      "inputs": [
        {
          "name": "newOwner",
          "type": "address",
          "internalType": "address"
        }
      ],
      "outputs": [],
      "stateMutability": "nonpayable"
    },
    {
      "type": "function",
      "name": "unpause",
      "inputs": [],
      "outputs": [],
      "stateMutability": "nonpayable"
    },
    {
      "type": "function",
      "name": "useTicket",
      "inputs": [
        {
          "name": "tokenId",
          "type": "uint256",
          "internalType": "uint256"
        }
      ],
      "outputs": [],
      "stateMutability": "nonpayable"
    },
    {
      "type": "function",
      "name": "userPurchaseCount",
      "inputs": [
        {
          "name": "",
          "type": "uint256",
          "internalType": "uint256"
        },
        {
          "name": "",
          "type": "address",
          "internalType": "address"
        }
      ],
      "outputs": [
        {
          "name": "",
          "type": "uint256",
          "internalType": "uint256"
        }
      ],
      "stateMutability": "view"
    },
    {
      "type": "function",
      "name": "verifyTicketHash",
      "inputs": [
        {
          "name": "tokenId",
          "type": "uint256",
          "internalType": "uint256"
        },
        {
          "name": "providedHash",
          "type": "bytes32",
          "internalType": "bytes32"
        }
      ],
      "outputs": [
        {
          "name": "",
          "type": "bool",
          "internalType": "bool"
        }
      ],
      "stateMutability": "view"
    },
    {
      "type": "event",
      "name": "Approval",
      "inputs": [
        {
          "name": "owner",
          "type": "address",
          "indexed": true,
          "internalType": "address"
        },
        {
          "name": "approved",
          "type": "address",
          "indexed": true,
          "internalType": "address"
        },
        {
          "name": "tokenId",
          "type": "uint256",
          "indexed": true,
          "internalType": "uint256"
        }
      ],
      "anonymous": false
    },
    {
      "type": "event",
      "name": "ApprovalForAll",
      "inputs": [
        {
          "name": "owner",
          "type": "address",
          "indexed": true,
          "internalType": "address"
        },
        {
          "name": "operator",
          "type": "address",
          "indexed": true,
          "internalType": "address"
        },
        {
          "name": "approved",
          "type": "bool",
          "indexed": false,
          "internalType": "bool"
        }
      ],
      "anonymous": false
    },
    {
      "type": "event",
      "name": "BatchMetadataUpdate",
      "inputs": [
        {
          "name": "_fromTokenId",
          "type": "uint256",
          "indexed": false,
          "internalType": "uint256"
        },
        {
          "name": "_toTokenId",
          "type": "uint256",
          "indexed": false,
          "internalType": "uint256"
        }
      ],
      "anonymous": false
    },
    {
      "type": "event",
      "name": "MetadataUpdate",
      "inputs": [
        {
          "name": "_tokenId",
          "type": "uint256",
          "indexed": false,
          "internalType": "uint256"
        }
      ],
      "anonymous": false
    },
    {
      "type": "event",
      "name": "MinterAuthorized",
      "inputs": [
        {
          "name": "minter",
          "type": "address",
          "indexed": true,
          "internalType": "address"
        },
        {
          "name": "authorized",
          "type": "bool",
          "indexed": false,
          "internalType": "bool"
        }
      ],
      "anonymous": false
    },
    {
      "type": "event",
      "name": "OwnershipTransferred",
      "inputs": [
        {
          "name": "previousOwner",
          "type": "address",
          "indexed": true,
          "internalType": "address"
        },
        {
          "name": "newOwner",
          "type": "address",
          "indexed": true,
          "internalType": "address"
        }
      ],
      "anonymous": false
    },
    {
      "type": "event",
      "name": "Paused",
      "inputs": [
        {
          "name": "account",
          "type": "address",
          "indexed": false,
          "internalType": "address"
        }
      ],
      "anonymous": false
    },
    {
      "type": "event",
      "name": "TicketCancelled",
      "inputs": [
        {
          "name": "tokenId",
          "type": "uint256",
          "indexed": true,
          "internalType": "uint256"
        },
        {
          "name": "eventId",
          "type": "uint256",
          "indexed": true,
          "internalType": "uint256"
        },
        {
          "name": "reason",
          "type": "string",
          "indexed": false,
          "internalType": "string"
        }
      ],
      "anonymous": false
    },
    {
      "type": "event",
      "name": "TicketMinted",
      "inputs": [
        {
          "name": "tokenId",
          "type": "uint256",
          "indexed": true,
          "internalType": "uint256"
        },
        {
          "name": "eventId",
          "type": "uint256",
          "indexed": true,
          "internalType": "uint256"
        },
        {
          "name": "buyer",
          "type": "address",
          "indexed": true,
          "internalType": "address"
        },
        {
          "name": "seatNumber",
          "type": "uint256",
          "indexed": false,
          "internalType": "uint256"
        },
        {
          "name": "price",
          "type": "uint256",
          "indexed": false,
          "internalType": "uint256"
        }
      ],
      "anonymous": false
    },
    {
      "type": "event",
      "name": "TicketStatusChanged",
      "inputs": [
        {
          "name": "tokenId",
          "type": "uint256",
          "indexed": true,
          "internalType": "uint256"
        },
        {
          "name": "oldStatus",
          "type": "uint8",
          "indexed": false,
          "internalType": "enum TicketManager.TicketStatus"
        },
        {
          "name": "newStatus",
          "type": "uint8",
          "indexed": false,
          "internalType": "enum TicketManager.TicketStatus"
        }
      ],
      "anonymous": false
    },
    {
      "type": "event",
      "name": "TicketUsed",
      "inputs": [
        {
          "name": "tokenId",
          "type": "uint256",
          "indexed": true,
          "internalType": "uint256"
        },
        {
          "name": "eventId",
          "type": "uint256",
          "indexed": true,
          "internalType": "uint256"
        },
        {
          "name": "verifier",
          "type": "address",
          "indexed": true,
          "internalType": "address"
        }
      ],
      "anonymous": false
    },
    {
      "type": "event",
      "name": "Transfer",
      "inputs": [
        {
          "name": "from",
          "type": "address",
          "indexed": true,
          "internalType": "address"
        },
        {
          "name": "to",
          "type": "address",
          "indexed": true,
          "internalType": "address"
        },
        {
          "name": "tokenId",
          "type": "uint256",
          "indexed": true,
          "internalType": "uint256"
        }
      ],
      "anonymous": false
    },
    {
      "type": "event",
      "name": "Unpaused",
      "inputs": [
        {
          "name": "account",
          "type": "address",
          "indexed": false,
          "internalType": "address"
        }
      ],
      "anonymous": false
    },
    {
      "type": "event",
      "name": "VerifierAuthorized",
      "inputs": [
        {
          "name": "verifier",
          "type": "address",
          "indexed": true,
          "internalType": "address"
        },
        {
          "name": "authorized",
          "type": "bool",
          "indexed": false,
          "internalType": "bool"
        }
      ],
      "anonymous": false
    },
    {
      "type": "error",
      "name": "ERC721EnumerableForbiddenBatchMint",
      "inputs": []
    },
    {
      "type": "error",
      "name": "ERC721IncorrectOwner",
      "inputs": [
        {
          "name": "sender",
          "type": "address",
          "internalType": "address"
        },
        {
          "name": "tokenId",
          "type": "uint256",
          "internalType": "uint256"
        },
        {
          "name": "owner",
          "type": "address",
          "internalType": "address"
        }
      ]
    },
    {
      "type": "error",
      "name": "ERC721InsufficientApproval",
      "inputs": [
        {
          "name": "operator",
          "type": "address",
          "internalType": "address"
        },
        {
          "name": "tokenId",
          "type": "uint256",
          "internalType": "uint256"
        }
      ]
    },
    {
      "type": "error",
      "name": "ERC721InvalidApprover",
      "inputs": [
        {
          "name": "approver",
          "type": "address",
          "internalType": "address"
        }
      ]
    },
    {
      "type": "error",
      "name": "ERC721InvalidOperator",
      "inputs": [
        {
          "name": "operator",
          "type": "address",
          "internalType": "address"
        }
      ]
    },
    {
      "type": "error",
      "name": "ERC721InvalidOwner",
      "inputs": [
        {
          "name": "owner",
          "type": "address",
          "internalType": "address"
        }
      ]
    },
    {
      "type": "error",
      "name": "ERC721InvalidReceiver",
      "inputs": [
        {
          "name": "receiver",
          "type": "address",
          "internalType": "address"
        }
      ]
    },
    {
      "type": "error",
      "name": "ERC721InvalidSender",
      "inputs": [
        {
          "name": "sender",
          "type": "address",
          "internalType": "address"
        }
      ]
    },
    {
      "type": "error",
      "name": "ERC721NonexistentToken",
      "inputs": [
        {
          "name": "tokenId",
          "type": "uint256",
          "internalType": "uint256"
        }
      ]
    },
    {
      "type": "error",
      "name": "ERC721OutOfBoundsIndex",
      "inputs": [
        {
          "name": "owner",
          "type": "address",
          "internalType": "address"
        },
        {
          "name": "index",
          "type": "uint256",
          "internalType": "uint256"
        }
      ]
    },
    {
      "type": "error",
      "name": "EnforcedPause",
      "inputs": []
    },
    {
      "type": "error",
      "name": "ExpectedPause",
      "inputs": []
    },
    {
      "type": "error",
      "name": "OwnableInvalidOwner",
      "inputs": [
        {
          "name": "owner",
          "type": "address",
          "internalType": "address"
        }
      ]
    },
    {
      "type": "error",
      "name": "OwnableUnauthorizedAccount",
      "inputs": [
        {
          "name": "account",
          "type": "address",
          "internalType": "address"
        }
      ]
    },
    {
      "type": "error",
      "name": "ReentrancyGuardReentrantCall",
      "inputs": []
    }
  ],
  "bytecode": {
    "object": "0x6080346200037c57601f1990601f906001600160401b0362003a063881900384810186168401838111858210176200029e578492829160405283396020938491810103126200037c57516001600160a01b039384821692918390036200037c576200006962000380565b93601085526f13db9b1a5b99551a58dad95d0813919560821b818601526200009062000380565b96600388526227aa2760e91b8289015285518481116200029e575f546001978882811c9216801562000371575b858310146200027f5781868493116200031e575b508490868311600114620002be575f92620002b2575b50505f19600383901b1c191690871b175f555b87519384116200029e5785548681811c9116801562000293575b838210146200027f5783811162000237575b5081928411600114620001d157505081929394955f92620001c5575b50505f19600383901b1c191690831b1782555b8015620001ad57600b80546001600160a01b03198116831790915560405193167f8be0079c531659141344cd1fd0a4f28419497f9722a3daafe3b4186f6b6457e05f80a380600c55600e556136659081620003a18239f35b604051631e4fbdf760e01b81525f6004820152602490fd5b015190505f8062000142565b5f868152828120918516989193925b8982106200021f575050838697989695961062000206575b505050811b01825562000155565b01515f1960f88460031b161c191690555f8080620001f8565b808885968294968601518155019501930190620001e0565b865f52825f208480870160051c82019285881062000275575b0160051c019087905b8281106200026957505062000126565b5f815501879062000259565b9250819262000250565b634e487b7160e01b5f52602260045260245ffd5b90607f169062000114565b634e487b7160e01b5f52604160045260245ffd5b015190505f80620000e7565b90848a9416915f8052865f20925f5b88828210620003075750508411620002ee575b505050811b015f55620000fa565b01515f1960f88460031b161c191690555f8080620002e0565b8385015186558d97909501949384019301620002cd565b9091505f8052845f208680850160051c82019287861062000367575b918b91869594930160051c01915b82811062000358575050620000d1565b5f81558594508b910162000348565b925081926200033a565b91607f1691620000bd565b5f80fd5b60408051919082016001600160401b038111838210176200029e5760405256fe60806040526004361015610011575f80fd5b5f3560e01c806301ffc9a7146102e45780630484a22f146102df57806306fdde03146102da578063081812fc146102d5578063095ea7b3146102d057806310007ee9146102cb57806318160ddd146102c657806323b872dd146102c1578063262dbfa7146102bc57806326606448146102b75780632773b799146102b2578063294e35bd146102ad5780632f745c59146102a8578063378c2b86146102a35780633f4ba83a1461029e5780633fb5c2531461029957806342842e0e146102945780634f6ccce71461028f57806350b447121461028a578063511bb724146102855780635c975abb146102805780636352211e1461027b5780636b6e3fcb1461027657806370a0823114610271578063715018a61461026c578063779cea77146102675780638456cb59146102625780638da5cb5b1461025d57806395d89b41146102585780639a891716146102535780639da000fe1461024e578063a22cb46514610249578063aa2fe91b14610244578063b88d4fde1461023f578063bac378661461023a578063c87b56dd14610235578063ca261ce114610230578063e63ea4081461022b578063e985e9c514610226578063ea5e6e6714610221578063efe7a79d1461021c578063f2fde38b14610217578063fab97aac14610212578063fb3ae56f1461020d5763ff99a06314610208575f80fd5b611da8565b611bb0565b611b35565b611aa9565b611a56565b611a27565b6119cb565b611906565b61189e565b611848565b61170e565b6116af565b611672565b6115b9565b611526565b6114e9565b611445565b61141d565b6113c4565b61137f565b6112f6565b6112d3565b611267565b611237565b611215565b611161565b610f6f565b610da1565b610d7a565b610c84565b610c1b565b610b99565b610b53565b610b29565b610af3565b610985565b61086d565b61076a565b610718565b6106cf565b6105d4565b610598565b6104bf565b610408565b6102ff565b6001600160e01b03198116036102fb57565b5f80fd5b346102fb5760203660031901126102fb57602060043561031e816102e9565b63ffffffff60e01b1663780e9d6360e01b8114908115610344575b506040519015158152f35b632483248360e11b81149150811561035e575b505f610339565b6380ac58cd60e01b811491508115610390575b811561037f575b505f610357565b6301ffc9a760e01b1490505f610378565b635b5e139f60e01b81149150610371565b600435906001600160a01b03821682036102fb57565b602435906001600160a01b03821682036102fb57565b60209060206040818301928281528551809452019301915f5b8281106103f4575050505090565b8351855293810193928101926001016103e6565b346102fb5760203660031901126102fb576104216103a1565b61042a81612aae565b61043381611eef565b915f5b82811061044f576040518061044b86826103cd565b0390f35b8061045c600192846121c2565b6104668287611f21565b5201610436565b91908251928382525f5b848110610497575050825f602080949584010152601f8019910116010190565b602081830181015184830182015201610477565b9060206104bc92818152019061046d565b90565b346102fb575f3660031901126102fb576040515f80546104de81610e0f565b8084529060209060019081811690811561056e5750600114610517575b61044b8561050b818703826107d1565b604051918291826104ab565b5f80805293507f290decd9548b62a8d60345a988386fc84ba6bc95484008f6362f93160ef3e5635b83851061055b5750505050810160200161050b8261044b6104fb565b805486860184015293820193810161053f565b86955061044b9693506020925061050b94915060ff191682840152151560051b82010192936104fb565b346102fb5760203660031901126102fb576004356105b581612eb5565b505f526004602052602060018060a01b0360405f205416604051908152f35b346102fb5760403660031901126102fb576105ed6103a1565b602435906105fa82612eb5565b331515806106bc575b8061068f575b61067757610675926106569181906001600160a01b0385811691167f8c5be1e5ebec7d5bd14f71427d1e84f3dd0314c0f7b2291e5b200ac8c7c3b9255f80a45f52600460205260405f2090565b80546001600160a01b0319166001600160a01b03909216919091179055565b005b60405163a9fbf51f60e01b8152336004820152602490fd5b506001600160a01b0381165f90815260056020908152604080832033845290915290205460ff1615610609565b506001600160a01b038116331415610603565b346102fb5760403660031901126102fb57602061070f6106ed6103b7565b6004355f526014835260405f209060018060a01b03165f5260205260405f2090565b54604051908152f35b346102fb575f3660031901126102fb576020600954604051908152f35b60609060031901126102fb576001600160a01b039060043582811681036102fb579160243590811681036102fb579060443590565b346102fb5761067561077b36610735565b91611f35565b634e487b7160e01b5f52604160045260245ffd5b61018081019081106001600160401b038211176107b157604052565b610781565b602081019081106001600160401b038211176107b157604052565b90601f801991011681019081106001600160401b038211176107b157604052565b604051906107ff82610795565b565b6001600160401b0381116107b157601f01601f191660200190565b92919261082882610801565b9161083660405193846107d1565b8294818452818301116102fb578281602093845f960137010152565b9080601f830112156102fb578160206104bc9335910161081c565b346102fb5760403660031901126102fb576004356024356001600160401b0381116102fb576108a0903690600401610852565b6108a8612f47565b5f828152600260205260409020546108ca906001600160a01b0316151561205e565b815f52600f60205260405f20600681019160ff83541690600482101561097157847fd320b4f6e5b1b0de7d1a6019a2ec992b8d074705834f2e20ad36b42a1deb5a2c61095d61096c9561094f7f1242df8622c8cdee6f783c390ff0e347eacbd7c142064b9760756384f2a23eb59861094288156120b6565b805460ff19166002179055565b5493604051918291826104ab565b0390a36040519182918261211a565b0390a2005b634e487b7160e01b5f52602160045260245ffd5b346102fb5760203660031901126102fb57600435335f52601360205260ff60405f20541615610aa2575f818152600260205260409020546109d0906001600160a01b0316151561205e565b6109d8612f73565b805f52600f6020527f1242df8622c8cdee6f783c390ff0e347eacbd7c142064b9760756384f2a23eb560405f206006810190610a50610a18835460ff1690565b92610a2284610ee7565b610a2c84156120b6565b600483015442101580610a94575b610a4390612160565b805460ff19166001179055565b54610a876040519283923390877fb35ebdfb9515b145e406c5c5a0846ec436db0b9560927af3af7a754d90c4f6ff5f80a482612134565b0390a26106756001600c55565b506005830154421115610a3a565b60405162461bcd60e51b8152602060048201526024808201527f5469636b65744d616e616765723a20756e617574686f72697a656420766572696044820152633334b2b960e11b6064820152608490fd5b346102fb5760403660031901126102fb576004355f52601160205260405f206024355f52602052602060405f2054604051908152f35b346102fb5760203660031901126102fb576004355f526015602052602060405f2054604051908152f35b346102fb5760403660031901126102fb576020610b7a610b716103a1565b602435906121c2565b604051908152f35b801515036102fb57565b60e435906107ff82610b82565b346102fb5760403660031901126102fb57610bb26103a1565b7f9041c22ed79d1c19c69cc22fd9e38c93da4f2dd8cd32580594e232a8a18541cb602060243592610be284610b82565b610bea612f47565b6001600160a01b03165f8181526012835260409020805460ff191660ff86151516179055925b6040519015158152a2005b346102fb575f3660031901126102fb57610c33612f47565b600d5460ff811615610c725760ff1916600d557f5db9ee0a495bf2e6ff9c91a7834c1ba4fdd244a5e8aa4e537bd38aeae4b073aa6020604051338152a1005b604051638dfc202b60e01b8152600490fd5b346102fb5760403660031901126102fb57610c9d6103a1565b6024355f52602090601060205260405f209160405180938491602082549182815201915f5260205f20935f905b828210610d6057505050610ce0925003836107d1565b610cf1610cec82612aae565b611eef565b6001600160a01b03918216915f90815b8551811015610d4f57610d148187611f21565b518583610d2083612eb5565b1614610d30575b50600101610d01565b83610d4891610d426001949688611f21565b52612232565b9290610d27565b8284526040518061044b86826103cd565b855484526001958601958895509381019390910190610cca565b346102fb57610675610d8b36610735565b9060405192610d99846107b6565b5f8452612d35565b346102fb5760203660031901126102fb57600435600954811015610df15760209060095f527f6e1540171b6c0c960b71a7020d9f60077f6af931a8bbf590da0223dacf75c7af0154604051908152f35b6044906040519063295f44f760e21b82525f60048301526024820152fd5b90600182811c92168015610e3d575b6020831014610e2957565b634e487b7160e01b5f52602260045260245ffd5b91607f1691610e1e565b9060405191825f8254610e5981610e0f565b908184526020946001916001811690815f14610ec55750600114610e87575b5050506107ff925003836107d1565b5f90815285812095935091905b818310610ead5750506107ff93508201015f8080610e78565b85548884018501529485019487945091830191610e94565b925050506107ff94925060ff191682840152151560051b8201015f8080610e78565b6004111561097157565b9060048210156109715752565b9c9b9a97939460808e610f6a9b97610f3e966101609e9a959b966101809c8452602084015260408301526060820152015260a08d015260c08c0190610ef1565b6001600160a01b031660e08a01526101008901521515610120880152610140870181905286019061046d565b930152565b346102fb5760203660031901126102fb576004355f52600f60205260405f20805461044b600183015491600284015493600381015491600482015490600583015490600684015490600785015492610fcb600887015460ff1690565b94600a610fda60098901610e47565b970154976040519b8c9b60ff60018060a01b038860081c169716958d610efe565b6001600160401b0381116107b15760051b60200190565b9080601f830112156102fb57602090823561102c81610ffb565b9361103a60405195866107d1565b81855260208086019260051b8201019283116102fb57602001905b828210611063575050505090565b81356001600160a01b03811681036102fb578152908301908301611055565b9080601f830112156102fb57602090823561109c81610ffb565b936110aa60405195866107d1565b81855260208086019260051b8201019283116102fb57602001905b8282106110d3575050505090565b813581529083019083016110c5565b81601f820112156102fb578035916020916110fc84610ffb565b9361110a60405195866107d1565b808552838086019160051b830101928084116102fb57848301915b8483106111355750505050505090565b82356001600160401b0381116102fb57869161115684848094890101610852565b815201920191611125565b346102fb576101403660031901126102fb576001600160401b036004358181116102fb57611193903690600401611012565b906044358181116102fb576111ac903690600401611082565b916111b5610b8c565b610104358381116102fb576111ce903690600401610852565b90610124359384116102fb5761044b946111ef6112099536906004016110e2565b9360c4359160a4359160843591606435916024359061229c565b604051918291826103cd565b346102fb575f3660031901126102fb57602060ff600d54166040519015158152f35b346102fb5760203660031901126102fb576020611255600435612eb5565b6040516001600160a01b039091168152f35b346102fb5760403660031901126102fb5761067560243560043561128a82610b82565b611292612f47565b5f818152600260205260409020546112b4906001600160a01b0316151561205e565b5f52600f602052600860405f20019060ff801983541691151516179055565b346102fb5760203660031901126102fb576020610b7a6112f16103a1565b612aae565b346102fb575f3660031901126102fb5761130e612f47565b600b80546001600160a01b031981169091555f906001600160a01b03167f8be0079c531659141344cd1fd0a4f28419497f9722a3daafe3b4186f6b6457e08280a3005b634e487b7160e01b5f52603260045260245ffd5b805482101561137a575f5260205f2001905f90565b611351565b346102fb5760403660031901126102fb576024356004355f52601060205260405f2080548210156102fb576020916113b691611365565b90546040519160031b1c8152f35b346102fb575f3660031901126102fb576113dc612f47565b6113e46131f4565b600160ff19600d541617600d557f62e78cea01bee320cd4e420270b5ea74000d11b0c9f74754ebdbfc544b05a2586020604051338152a1005b346102fb575f3660031901126102fb57600b546040516001600160a01b039091168152602090f35b346102fb575f3660031901126102fb576040515f6001805461146681610e0f565b808552916020916001811690811561056e57506001146114905761044b8561050b818703826107d1565b60015f90815293507fb10e2d527612073b26eecdfd717e6a320cf44b4afac2b0732d9fcbe2b7fa0cf65b8385106114d65750505050810160200161050b8261044b6104fb565b80548686018401529382019381016114ba565b346102fb5760203660031901126102fb576001600160a01b0361150a6103a1565b165f526013602052602060ff60405f2054166040519015158152f35b346102fb576101403660031901126102fb576115406103a1565b611548610b8c565b906001600160401b0390610104358281116102fb5761156b903690600401610852565b610124359283116102fb5761044b9361158b6115a9943690600401610852565b9260c4359060a4359060843590606435906044359060243590612ae4565b6040519081529081906020820190565b346102fb5760403660031901126102fb576115d26103a1565b6024356115de81610b82565b6001600160a01b038216918215611659578161161861162992335f52600560205260405f209060018060a01b03165f5260205260405f2090565b9060ff801983541691151516179055565b60405190151581527f17307eab39ab6107e8899845ad3d59bd9653f200f220920489ca2b5937696c3160203392a3005b604051630b61174360e31b815260048101849052602490fd5b346102fb5760203660031901126102fb576001600160a01b036116936103a1565b165f526012602052602060ff60405f2054166040519015158152f35b346102fb5760803660031901126102fb576116c86103a1565b6116d06103b7565b606435916001600160401b0383116102fb57366023840112156102fb5761170461067593369060248160040135910161081c565b9160443591612d35565b346102fb5760203660031901126102fb576004356001600160401b0381116102fb5761173e903690600401611082565b611746612f47565b5f5b8151811015610675578061175e60019284611f21565b51611790611784611777835f52600260205260405f2090565b546001600160a01b031690565b6001600160a01b031690565b151580611821575b6117a4575b5001611748565b7f1242df8622c8cdee6f783c390ff0e347eacbd7c142064b9760756384f2a23eb5611818600661180c6117eb826117e3875f52600f60205260405f2090565b015460ff1690565b916117fe865f52600f60205260405f2090565b01805460ff19166003179055565b6040519182918261214a565b0390a25f61179d565b5061183960066117e3835f52600f60205260405f2090565b61184281610ee7565b15611798565b346102fb5760203660031901126102fb5760043561186581612eb5565b505f52600660205261044b61187c60405f20610e47565b5f604051611889816107b6565b5260405191829160208352602083019061046d565b346102fb576020806003193601126102fb576004355f52601060205260405f20906040519081602084549182815201935f5260205f20915f905b8282106118ef5761044b85611209818903826107d1565b8354865294850194600193840193909101906118d8565b346102fb5761191436610735565b919061191e612f47565b6001600160a01b0381811692611935841515612e39565b1690816119625750505f8080938193828215611959575bf11561195457005b612eaa565b506108fc61194c565b60405163a9059cbb60e01b81526001600160a01b03919091166004820152602481019390935260209150829060449082905f905af18015611954576119a357005b6106759060203d6020116119c4575b6119bc81836107d1565b810190612e95565b503d6119b2565b346102fb5760403660031901126102fb57602060ff611a1b6119eb6103a1565b6119f36103b7565b6001600160a01b039182165f9081526005865260408082209290931681526020919091522090565b54166040519015158152f35b346102fb5760403660031901126102fb57611a40612f47565b6004355f52601560205260243560405f20555f80f35b346102fb5760403660031901126102fb576004355f81815260026020526040902054611a8c906001600160a01b0316151561205e565b5f52600f6020526020602435600a60405f20015414604051908152f35b346102fb5760203660031901126102fb57611ac26103a1565b611aca612f47565b6001600160a01b03908116908115611b1d57600b54826bffffffffffffffffffffffff60a01b821617600b55167f8be0079c531659141344cd1fd0a4f28419497f9722a3daafe3b4186f6b6457e05f80a3005b604051631e4fbdf760e01b81525f6004820152602490fd5b346102fb5760403660031901126102fb57611b4e6103a1565b7f549bea741606fea6131feb992ab8021bef3bb5dfc19f6d30184944614a875459602060243592611b7e84610b82565b611b86612f47565b6001600160a01b03165f8181526013835260409020805460ff191660ff8615151617905592610c10565b346102fb5760203660031901126102fb576004355f8181526002602052604090205461044b916001600160a01b0391611bec908316151561205e565b5f52600f60205260405f20611bff6107f2565b918154835260018201546020840152600282015460408401526003820154606084015260048201549260808101938452610160600a60058501549460a08401958652611c7160068201549560c0860196611c5c60ff82168961287b565b60081c1660e086019060018060a01b03169052565b6007810154610100850152611c97611c8d600883015460ff1690565b1515610120860152565b611ca360098201610e47565b610140850152015491015251611cb881610ee7565b611cc181610ee7565b159182611cef575b5081611ce3575b5060405190151581529081906020820190565b9050514211155f611cd0565b5142101591505f611cc9565b6020815281516020820152602082015160408201526040820151606082015260608201516080820152608082015160a082015260a082015160c0820152611d4a60c083015160e0830190610ef1565b60e08201516001600160a01b0316610100828101919091528201516101209081830152820151611d81610140918284019015159052565b82015161018090611d9f6101609183838601526101a085019061046d565b93015191015290565b346102fb5760203660031901126102fb5761044b60043560408051611dcc81610795565b5f81525f60208201525f828201525f60608201525f60808201525f60a08201525f60c08201525f60e0820152600a6101005f818401526101205f81850152611ecf610140916060838701525f61016080970152875f52600260205260018060a01b0397611e3f89895f205416151561205e565b5f52600f602052865f2093611eb6611e556107f2565b9986548b52600187015460208c015260028701548a8c0152600387015460608c0152600487015460808c0152600587015460a08c01526006870154611ea18c60c060ff8416910161287b565b60081c1660e08b019060018060a01b03169052565b600785015490890152600884015460ff16151590880152565b611edb60098301610e47565b908601520154908301525191829182611cfb565b90611ef982610ffb565b611f0660405191826107d1565b8281528092611f17601f1991610ffb565b0190602036910137565b805182101561137a5760209160051b010190565b91906001600160a01b039081811615612046578190611f526131f4565b835f5260026020528160405f205416611fa6575b611f7290843391613320565b9316921690828203611f8357505050565b60649350604051926364283d7b60e01b8452600484015260248301526044820152fd5b9050600f60205260ff600860405f2001541615611ff257611f728291611feb611fdc60066117e3885f52600f60205260405f2090565b611fe581610ee7565b15612eef565b9050611f66565b60405162461bcd60e51b815260206004820152602660248201527f5469636b65744d616e616765723a207469636b6574206e6f74207472616e7366604482015265657261626c6560d01b6064820152608490fd5b604051633250574960e11b81525f6004820152602490fd5b1561206557565b60405162461bcd60e51b8152602060048201526024808201527f5469636b65744d616e616765723a207469636b657420646f6573206e6f7420656044820152631e1a5cdd60e21b6064820152608490fd5b156120bd57565b60405162461bcd60e51b815260206004820152601f60248201527f5469636b65744d616e616765723a207469636b6574206e6f742076616c6964006044820152606490fd5b9060048110156109715760ff80198354169116179055565b6020600291939293612130816040810196610ef1565b0152565b6020600191939293612130816040810196610ef1565b6020600391939293612130816040810196610ef1565b1561216757565b60405162461bcd60e51b815260206004820152602d60248201527f5469636b65744d616e616765723a207469636b6574206e6f7420696e2076616c60448201526c69642074696d652072616e676560981b6064820152608490fd5b6121cb81612aae565b8210156121f35760018060a01b03165f52600760205260405f20905f5260205260405f205490565b60405163295f44f760e21b81526001600160a01b039190911660048201526024810191909152604490fd5b634e487b7160e01b5f52601160045260245ffd5b5f1981146122405760010190565b61221e565b1561224c57565b60405162461bcd60e51b815260206004820152602260248201527f5469636b65744d616e616765723a20756e617574686f72697a6564206d696e7460448201526132b960f11b6064820152608490fd5b97989695949192939096335f52601260205260ff60405f20541680156125cc575b6122c690612245565b6122ce612f73565b6122da895115156125e0565b6122f089518551811490816125c1575b5061262c565b6122fe60648a511115612684565b6123088951611eef565b915f5b8a518110156125ab57808c8b8a8c8f8a612343878f938f9a6123309061233d92611f21565b516001600160a01b031690565b99611f21565b519561234f888c611f21565b51936123656001600160a01b038b1615156126d0565b612370868410612728565b61237b42871161277e565b61238d875f52601560205260405f2090565b5480612584575b508761255f575b600e54956123a887612232565b600e5560408051602081018981529181018a905260608d811b6bffffffffffffffffffffffff1916908201524260748083019190915281526123eb6094826107d1565b519020936123f76107f2565b898152602081018b90526040810196909652606086018d9052608086015260a08501525f60c08501526001600160a01b038a1660e085015242610100850152151561012084015261014083015261016082015261245c835f52600f60205260405f2090565b90612466916129a5565b81612479845f52601060205260405f2090565b9061248391612a7a565b8b841515966124fc7fed62a49acafd18b53efaca7f328da805d1d7e1d64fcc169b00556f05b163ed7c93600199612535575b6124e0836124cb895f52601460205260405f2090565b9060018060a01b03165f5260205260405f2090565b6124ea8154612232565b90556124f68684612f96565b85613025565b83612507888d611f21565b5261252c6040519283928a8060a01b0316978360209093929193604081019481520152565b0390a40161230b565b856125598961254c8a5f52601160205260405f2090565b905f5260205260405f2090565b556124b5565b61257f6125788961254c8a5f52601160205260405f2090565b5415612825565b61239b565b6125a59061259e8c6124cb8b5f52601460205260405f2090565b54106127ca565b5f612394565b5050509750505050505050506104bc6001600c55565b90508251145f6122ea565b50600b546001600160a01b031633146122bd565b156125e757565b60405162461bcd60e51b815260206004820152601f60248201527f5469636b65744d616e616765723a20656d70747920726563697069656e7473006044820152606490fd5b1561263357565b60405162461bcd60e51b8152602060048201526024808201527f5469636b65744d616e616765723a206172726179206c656e677468206d69736d6044820152630c2e8c6d60e31b6064820152608490fd5b1561268b57565b60405162461bcd60e51b815260206004820152601e60248201527f5469636b65744d616e616765723a20626174636820746f6f206c6172676500006044820152606490fd5b156126d757565b60405162461bcd60e51b815260206004820152602360248201527f5469636b65744d616e616765723a206d696e7420746f207a65726f206164647260448201526265737360e81b6064820152608490fd5b1561272f57565b60405162461bcd60e51b815260206004820152602160248201527f5469636b65744d616e616765723a20696e76616c69642074696d652072616e676044820152606560f81b6064820152608490fd5b1561278557565b60405162461bcd60e51b815260206004820152601e60248201527f5469636b65744d616e616765723a20616c7265616479206578706972656400006044820152606490fd5b156127d157565b60405162461bcd60e51b815260206004820152602660248201527f5469636b65744d616e616765723a207075726368617365206c696d697420657860448201526518d95959195960d21b6064820152608490fd5b1561282c57565b60405162461bcd60e51b815260206004820152602160248201527f5469636b65744d616e616765723a207365617420616c72656164792074616b656044820152603760f91b6064820152608490fd5b60048210156109715752565b601f821161289457505050565b5f5260205f20906020601f840160051c830193106128cc575b601f0160051c01905b8181106128c1575050565b5f81556001016128b6565b90915081906128ad565b91909182516001600160401b0381116107b1576128fd816128f78454610e0f565b84612887565b602080601f831160011461293e5750819061292f9394955f92612933575b50508160011b915f199060031b1c19161790565b9055565b015190505f8061291b565b90601f19831695612952855f5260205f2090565b925f905b88821061298d57505083600195969710612975575b505050811b019055565b01515f1960f88460031b161c191690555f808061296b565b80600185968294968601518155019501930190612956565b90610160600a91805184556020810151600185015560408101516002850155606081015160038501556080810151600485015560a08101516005850155612a3060068501612a0060c08401516129fa81610ee7565b82612102565b60e08301516001600160a01b03168154610100600160a81b03191660089190911b610100600160a81b0316179055565b6101008101516007850155612a61612a4c610120830151151590565b600886019060ff801983541691151516179055565b612a73610140820151600986016128d6565b0151910155565b8054600160401b8110156107b157612a9791600182018155611365565b819291549060031b91821b915f19901b1916179055565b6001600160a01b03168015612acc575f52600360205260405f205490565b6040516322718ad960e21b81525f6004820152602490fd5b9192939798909698335f52601260205260ff60405f2054168015612d21575b612b0c90612245565b612b14612f73565b6001600160a01b038316988890612b2c8b15156126d0565b612b37898910612728565b612b42428a1161277e565b612b54825f52601560205260405f2090565b5480612d01575b508515159283612ce3575b600e549c8d9a8b9a612b778c612232565b600e5560408051602081018e815291810188905260608082018d90528b901b6bffffffffffffffffffffffff19166080820152426094808301919091528152612bc160b4826107d1565b51902094612bcd6107f2565b968752602087018b9052604087018c90526060870152608086015260a08501525f60c08501526001600160a01b03871660e0850152426101008501521515610120840152610140830152610160820152612c2f875f52600f60205260405f2090565b90612c39916129a5565b85612c4c895f52601060205260405f2090565b90612c5691612a7a565b7fed62a49acafd18b53efaca7f328da805d1d7e1d64fcc169b00556f05b163ed7c95612cac936124f692612cc6575b612c9b816124cb8c5f52601460205260405f2090565b612ca58154612232565b9055612f96565b604080519182526020820192909252a46104bc6001600c55565b81612cdd8761254c8d5f52601160205260405f2090565b55612c85565b612cfc6125788861254c865f52601160205260405f2090565b612b66565b612d1b9061259e876124cb865f52601460205260405f2090565b5f612b5b565b50600b546001600160a01b03163314612b03565b91929092612d44818585611f35565b833b612d51575b50505050565b612d76916020916040519384928392630a85bd0160e11b978885523360048601613172565b03815f6001600160a01b0388165af15f9181612e08575b50612dcc5782612d9b6131a3565b8051919082612dc557604051633250574960e11b81526001600160a01b0383166004820152602490fd5b6020915001fd5b6001600160e01b03191603612de557505f808080612d4b565b604051633250574960e11b81526001600160a01b03919091166004820152602490fd5b612e2b91925060203d602011612e32575b612e2381836107d1565b81019061315d565b905f612d8d565b503d612e19565b15612e4057565b60405162461bcd60e51b815260206004820152602760248201527f5469636b65744d616e616765723a20776974686472617720746f207a65726f206044820152666164647265737360c81b6064820152608490fd5b908160209103126102fb57516104bc81610b82565b6040513d5f823e3d90fd5b5f818152600260205260409020546001600160a01b0316908115612ed7575090565b60249060405190637e27328960e01b82526004820152fd5b15612ef657565b60405162461bcd60e51b8152602060048201526024808201527f5469636b65744d616e616765723a20696e76616c6964207469636b65742073746044820152636174757360e01b6064820152608490fd5b600b546001600160a01b03163303612f5b57565b60405163118cdaa760e01b8152336004820152602490fd5b6002600c5414612f84576002600c55565b604051633ee5aeb560e01b8152600490fd5b6001600160a01b03918183161561204657612faf6131f4565b805f5260026020528260405f205416612feb575b612fcc91613212565b16612fd357565b6040516339e3563760e11b81525f6004820152602490fd5b600f60205260ff600860405f2001541615611ff257612fcc9161301e611fdc60066117e3855f52600f60205260405f2090565b9150612fc3565b919091805f526020600660205260405f20908451906001600160401b0382116107b15761305c826130568554610e0f565b85612887565b602090601f83116001146130ca5750816130c59493926130b3927ff8e1a15aba9398e019f0b49df1a4fde98ee17ae345cb5f6b5e2c27f5033e8ce797985f926129335750508160011b915f199060031b1c19161790565b90556040519081529081906020820190565b0390a1565b90601f198316966130de855f5260205f2090565b925f905b8982106131455750509183916001936130c59796957ff8e1a15aba9398e019f0b49df1a4fde98ee17ae345cb5f6b5e2c27f5033e8ce7999a1061312d575b505050811b0190556115a9565b01515f1960f88460031b161c191690555f8080613120565b806001859682949686015181550195019301906130e2565b908160209103126102fb57516104bc816102e9565b6001600160a01b0391821681529116602082015260408101919091526080606082018190526104bc9291019061046d565b3d156131cd573d906131b482610801565b916131c260405193846107d1565b82523d5f602084013e565b606090565b6131e4905f52600460205260405f2090565b80546001600160a01b0319169055565b60ff600d541661320057565b60405163d93c066560e01b8152600490fd5b5f828152600260205260409020546001600160a01b0316916001600160a01b0380841680159182156132f4575b84169182159081156132d1575b61326286610656875f52600260205260405f2090565b8484847fddf252ad1be2c89b69c2b068fc378daa952ba7f163c4a11628f55a4df523b3ef5f80a4156132bb57613297846133fc565b156132a85750506104bc9150613494565b036132b257505090565b6104bc91613451565b818314613297576132cc848761338e565b613297565b6001600160a01b0386165f9081526003602052604090206001815401905561324c565b6132fd846131d2565b6001600160a01b0386165f90815260036020526040902080545f1901905561323f565b5f828152600260205260409020549091906001600160a01b0316926001600160a01b03908282821661337d575b505080841680159182156132f45784169182159081156132d15761326286610656875f52600260205260405f2090565b613387918661355c565b5f8261334d565b905f9161339a81612aae565b82845260209060088252604093848620549360018060a01b0316865260078352848620938281036133da575b508552600882528484812055845252812055565b828752848452858720548188528087892055875260088452858720555f6133c6565b600954815f52600a6020528060405f2055600160401b8110156107b157600181018060095581101561137a5760095f527f6e1540171b6c0c960b71a7020d9f60077f6af931a8bbf590da0223dacf75c7af0155565b9061345b82612aae565b5f198101929083116122405760018060a01b03165f52600760205260405f20825f526020528060405f20555f52600860205260405f2055565b600980545f19908181019080821161224057845f52600a6020528060405f205492101561137a57835f527f6e1540171b6c0c960b71a7020d9f60077f6af931a8bbf590da0223dacf75c7ae94858201549183101561137a577f6e1540171b6c0c960b71a7020d9f60077f6af931a8bbf590da0223dacf75c7af83018290555f918252600a6020526040808320939093558152908120558154908115613548578101928184101561137a575f91838352015555565b634e487b7160e01b5f52603160045260245ffd5b6001600160a01b039082821680151590816135c7575b501561357e5750505050565b1661359c57604051637e27328960e01b815260048101839052602490fd5b60405163177e802f60e01b81526001600160a01b039190911660048201526024810191909152604490fd5b828416808214925082156135fd575b5081156135e5575b505f613572565b9050845f5260046020528260405f205416145f6135de565b9091505f52600560205260ff6136268560405f209060018060a01b03165f5260205260405f2090565b5416905f6135d656fea2646970667358221220783359ef472fe91e4d25bb17f51f98590a3c8585e16153a1e778b69e315afe2064736f6c63430008170033",
    "linkReferences": {}
  },
  "methodIdentifiers": {
    "approve(address,uint256)": "095ea7b3",
    "authorizedMinters(address)": "aa2fe91b",
    "authorizedVerifiers(address)": "9a891716",
    "balanceOf(address)": "70a08231",
    "batchMintTickets(address[],uint256,uint256[],uint256,uint256,uint256,uint256,bool,string,string[])": "511bb724",
    "cancelTicket(uint256,string)": "262dbfa7",
    "emergencyWithdraw(address,address,uint256)": "e63ea408",
    "eventPurchaseLimit(uint256)": "294e35bd",
    "eventTickets(uint256,uint256)": "779cea77",
    "expireTickets(uint256[])": "bac37866",
    "getApproved(uint256)": "081812fc",
    "getEventTickets(uint256)": "ca261ce1",
    "getTicketInfo(uint256)": "ff99a063",
    "getUserEventTickets(address,uint256)": "3fb5c253",
    "getUserTickets(address)": "0484a22f",
    "isApprovedForAll(address,address)": "e985e9c5",
    "isTicketValid(uint256)": "fb3ae56f",
    "mintTicket(address,uint256,uint256,uint256,uint256,uint256,uint256,bool,string,string)": "9da000fe",
    "name()": "06fdde03",
    "owner()": "8da5cb5b",
    "ownerOf(uint256)": "6352211e",
    "pause()": "8456cb59",
    "paused()": "5c975abb",
    "renounceOwnership()": "715018a6",
    "safeTransferFrom(address,address,uint256)": "42842e0e",
    "safeTransferFrom(address,address,uint256,bytes)": "b88d4fde",
    "seatToTicket(uint256,uint256)": "2773b799",
    "setApprovalForAll(address,bool)": "a22cb465",
    "setEventPurchaseLimit(uint256,uint256)": "ea5e6e67",
    "setMinterAuthorization(address,bool)": "378c2b86",
    "setTicketTransferable(uint256,bool)": "6b6e3fcb",
    "setVerifierAuthorization(address,bool)": "fab97aac",
    "supportsInterface(bytes4)": "01ffc9a7",
    "symbol()": "95d89b41",
    "tickets(uint256)": "50b44712",
    "tokenByIndex(uint256)": "4f6ccce7",
    "tokenOfOwnerByIndex(address,uint256)": "2f745c59",
    "tokenURI(uint256)": "c87b56dd",
    "totalSupply()": "18160ddd",
    "transferFrom(address,address,uint256)": "23b872dd",
    "transferOwnership(address)": "f2fde38b",
    "unpause()": "3f4ba83a",
    "useTicket(uint256)": "26606448",
    "userPurchaseCount(uint256,address)": "10007ee9",
    "verifyTicketHash(uint256,bytes32)": "efe7a79d"
  },
  "id": 60
}